{
  "contractName": "ElectionCommision",
  "abi": [
    {
      "inputs": [],
      "stateMutability": "nonpayable",
      "type": "constructor"
    },
    {
      "anonymous": false,
      "inputs": [
        {
          "indexed": false,
          "internalType": "string",
          "name": "",
          "type": "string"
        },
        {
          "indexed": false,
          "internalType": "bool",
          "name": "",
          "type": "bool"
        }
      ],
      "name": "consolePrint",
      "type": "event"
    },
    {
      "inputs": [],
      "name": "admin",
      "outputs": [
        {
          "internalType": "address",
          "name": "",
          "type": "address"
        }
      ],
      "stateMutability": "view",
      "type": "function",
      "constant": true
    },
    {
      "inputs": [
        {
          "internalType": "address",
          "name": "election",
          "type": "address"
        },
        {
          "internalType": "uint256",
          "name": "id",
          "type": "uint256"
        }
      ],
      "name": "approveCandidate",
      "outputs": [],
      "stateMutability": "nonpayable",
      "type": "function"
    },
    {
      "inputs": [
        {
          "internalType": "address",
          "name": "election",
          "type": "address"
        },
        {
          "internalType": "uint256",
          "name": "time",
          "type": "uint256"
        }
      ],
      "name": "setStart",
      "outputs": [],
      "stateMutability": "nonpayable",
      "type": "function"
    },
    {
      "inputs": [
        {
          "internalType": "address",
          "name": "election",
          "type": "address"
        },
        {
          "internalType": "uint256",
          "name": "time",
          "type": "uint256"
        }
      ],
      "name": "setStop",
      "outputs": [],
      "stateMutability": "nonpayable",
      "type": "function"
    },
    {
      "inputs": [],
      "name": "withdraw",
      "outputs": [],
      "stateMutability": "nonpayable",
      "type": "function"
    }
  ],
  "bytecode": "0x608060405234801561001057600080fd5b50336000806101000a81548173ffffffffffffffffffffffffffffffffffffffff021916908373ffffffffffffffffffffffffffffffffffffffff160217905550610b00806100606000396000f3fe608060405234801561001057600080fd5b50600436106100575760003560e01c80630fa224d91461005c5780631f04361d146100785780633ccfd60b146100945780635a70a4ac1461009e578063f851a440146100ba575b600080fd5b61007660048036038101906100719190610745565b6100d8565b005b610092600480360381019061008d9190610745565b6102c9565b005b61009c610478565b005b6100b860048036038101906100b39190610745565b610585565b005b6100c2610688565b6040516100cf9190610794565b60405180910390f35b60008054906101000a900473ffffffffffffffffffffffffffffffffffffffff1673ffffffffffffffffffffffffffffffffffffffff163373ffffffffffffffffffffffffffffffffffffffff1614610166576040517f08c379a000000000000000000000000000000000000000000000000000000000815260040161015d9061080c565b60405180910390fd5b8042106101a8576040517f08c379a000000000000000000000000000000000000000000000000000000000815260040161019f90610878565b60405180910390fd5b600073ffffffffffffffffffffffffffffffffffffffff168273ffffffffffffffffffffffffffffffffffffffff1603610217576040517f08c379a000000000000000000000000000000000000000000000000000000000815260040161020e906108e4565b60405180910390fd5b600173ffffffffffffffffffffffffffffffffffffffff168273ffffffffffffffffffffffffffffffffffffffff160361025457610253610904565b5b60008290508073ffffffffffffffffffffffffffffffffffffffff1663f6a03ebf836040518263ffffffff1660e01b81526004016102929190610942565b600060405180830381600087803b1580156102ac57600080fd5b505af11580156102c0573d6000803e3d6000fd5b50505050505050565b60008054906101000a900473ffffffffffffffffffffffffffffffffffffffff1673ffffffffffffffffffffffffffffffffffffffff163373ffffffffffffffffffffffffffffffffffffffff1614610357576040517f08c379a000000000000000000000000000000000000000000000000000000000815260040161034e9061080c565b60405180910390fd5b600073ffffffffffffffffffffffffffffffffffffffff168273ffffffffffffffffffffffffffffffffffffffff16036103c6576040517f08c379a00000000000000000000000000000000000000000000000000000000081526004016103bd906108e4565b60405180910390fd5b600173ffffffffffffffffffffffffffffffffffffffff168273ffffffffffffffffffffffffffffffffffffffff160361040357610402610904565b5b60008290508073ffffffffffffffffffffffffffffffffffffffff166372c18df6836040518263ffffffff1660e01b81526004016104419190610942565b600060405180830381600087803b15801561045b57600080fd5b505af115801561046f573d6000803e3d6000fd5b50505050505050565b600047905060008060009054906101000a900473ffffffffffffffffffffffffffffffffffffffff1673ffffffffffffffffffffffffffffffffffffffff16826040516104c49061098e565b60006040518083038185875af1925050503d8060008114610501576040519150601f19603f3d011682016040523d82523d6000602084013e610506565b606091505b505090508061054a576040517f08c379a0000000000000000000000000000000000000000000000000000000008152600401610541906109ef565b60405180910390fd5b7f1ef67e02d5154b759c3f462d02ca51da449756396a0f5478f9cf7944f78f4403816040516105799190610a9c565b60405180910390a15050565b60008054906101000a900473ffffffffffffffffffffffffffffffffffffffff1673ffffffffffffffffffffffffffffffffffffffff163373ffffffffffffffffffffffffffffffffffffffff1614610613576040517f08c379a000000000000000000000000000000000000000000000000000000000815260040161060a9061080c565b60405180910390fd5b60008290508073ffffffffffffffffffffffffffffffffffffffff1663c1f127e2836040518263ffffffff1660e01b81526004016106519190610942565b600060405180830381600087803b15801561066b57600080fd5b505af115801561067f573d6000803e3d6000fd5b50505050505050565b60008054906101000a900473ffffffffffffffffffffffffffffffffffffffff1681565b600080fd5b600073ffffffffffffffffffffffffffffffffffffffff82169050919050565b60006106dc826106b1565b9050919050565b6106ec816106d1565b81146106f757600080fd5b50565b600081359050610709816106e3565b92915050565b6000819050919050565b6107228161070f565b811461072d57600080fd5b50565b60008135905061073f81610719565b92915050565b6000806040838503121561075c5761075b6106ac565b5b600061076a858286016106fa565b925050602061077b85828601610730565b9150509250929050565b61078e816106d1565b82525050565b60006020820190506107a96000830184610785565b92915050565b600082825260208201905092915050565b7f4e6f2061646d696e000000000000000000000000000000000000000000000000600082015250565b60006107f66008836107af565b9150610801826107c0565b602082019050919050565b60006020820190508181036000830152610825816107e9565b9050919050565b7f6d7573742062652028737461727474696d65203e206e6f772900000000000000600082015250565b60006108626019836107af565b915061086d8261082c565b602082019050919050565b6000602082019050818103600083015261089181610855565b9050919050565b7f696e76616c696420616464726573730000000000000000000000000000000000600082015250565b60006108ce600f836107af565b91506108d982610898565b602082019050919050565b600060208201905081810360008301526108fd816108c1565b9050919050565b7f4e487b7100000000000000000000000000000000000000000000000000000000600052600160045260246000fd5b61093c8161070f565b82525050565b60006020820190506109576000830184610933565b92915050565b600081905092915050565b50565b600061097860008361095d565b915061098382610968565b600082019050919050565b60006109998261096b565b9150819050919050565b7f4661696c656420746f2073656e64204574686572000000000000000000000000600082015250565b60006109d96014836107af565b91506109e4826109a3565b602082019050919050565b60006020820190508181036000830152610a08816109cc565b9050919050565b7f2045746865722077697468647261776e207375636365737366756c6c79203a2960008201527f2000000000000000000000000000000000000000000000000000000000000000602082015250565b6000610a6b6021836107af565b9150610a7682610a0f565b604082019050919050565b60008115159050919050565b610a9681610a81565b82525050565b60006040820190508181036000830152610ab581610a5e565b9050610ac46020830184610a8d565b9291505056fea26469706673582212204cf90f00d193faef014dad16c244531275f929cc7af47a7b84016347234c83a064736f6c63430008100033",
  "immutableReferences": {},
  "source": "// SPDX-License-Identifier: MIT\r\npragma solidity ^0.8.7;\r\n\r\ninterface Election {\r\n\r\n    function approveCandidiate(uint256 num) external;\r\n\r\n    function setStart(uint256 start) external;\r\n\r\n    function setStop(uint256 stop) external;\r\n\r\n    function getResults() external;\r\n\r\n}\r\n\r\ncontract ElectionCommision {\r\n    \r\n    address public admin;\r\n    \r\n    constructor() {\r\n\r\n        admin = msg.sender;\r\n\r\n    }\r\n\r\n    modifier adminOnly() {\r\n\r\n        require(msg.sender == admin,\"No admin\");\r\n        _;\r\n\r\n    }\r\n\r\n    function approveCandidate(address election, uint256 id) public adminOnly {\r\n        \r\n        require(election != address(0), \"invalid address\");\r\n\r\n        assert(election != 0x0000000000000000000000000000000000000001);\r\n\r\n        Election e = Election(election);\r\n\r\n        e.approveCandidiate(id);\r\n\r\n    }\r\n\r\n\r\n    function setStart(address election, uint256 time) public adminOnly {\r\n\r\n        require(block.timestamp < time,\"must be (starttime > now)\");\r\n\r\n        require(election != address(0), \"invalid address\");\r\n\r\n        assert(election != 0x0000000000000000000000000000000000000001);\r\n        \r\n        Election e= Election(election);\r\n\r\n        e.setStart(time);\r\n        \r\n    }\r\n\r\n\r\n    function setStop(address election, uint256 time) public adminOnly {\r\n\r\n        Election e = Election(election);\r\n\r\n        e.setStop(time);\r\n\r\n    }\r\n\r\n\r\n    event consolePrint(string,bool);\r\n\r\n\r\n    function withdraw() public {\r\n\r\n        uint amount = address(this).balance;\r\n\r\n        (bool success, ) = admin.call{value: amount}(\"\");\r\n\r\n        require(success, \"Failed to send Ether\");\r\n\r\n        //emits the below statement if ether withdrawal is successfull \r\n        emit consolePrint(\" Ether withdrawn successfully :) \", success);\r\n\r\n    }\r\n    \r\n}",
  "sourcePath": "C:\\Users\\sakha\\Projects\\newele\\contracts\\ElectionCommission.sol",
  "compiler": {
    "name": "solc",
    "version": "0.8.16+commit.07a7930e.Emscripten.clang"
  },
  "schemaVersion": "3.4.9",
  "updatedAt": "2022-10-12T05:11:46.873Z",
  "networkType": "ethereum",
  "devdoc": {
    "kind": "dev",
    "methods": {},
    "version": 1
  },
  "userdoc": {
    "kind": "user",
    "methods": {},
    "version": 1
  }
}