{
  "contractName": "Election2022",
  "abi": [
    {
      "inputs": [
        {
          "internalType": "address",
          "name": "_admin",
          "type": "address"
        }
      ],
      "stateMutability": "nonpayable",
      "type": "constructor"
    },
    {
      "anonymous": false,
      "inputs": [
        {
          "indexed": false,
          "internalType": "string",
          "name": "",
          "type": "string"
        },
        {
          "indexed": false,
          "internalType": "address",
          "name": "",
          "type": "address"
        }
      ],
      "name": "consolePrint",
      "type": "event"
    },
    {
      "inputs": [
        {
          "internalType": "uint256",
          "name": "",
          "type": "uint256"
        }
      ],
      "name": "candidates",
      "outputs": [
        {
          "internalType": "bool",
          "name": "approved",
          "type": "bool"
        },
        {
          "internalType": "address",
          "name": "id",
          "type": "address"
        },
        {
          "internalType": "uint256",
          "name": "voteCount",
          "type": "uint256"
        },
        {
          "internalType": "string",
          "name": "candidateName",
          "type": "string"
        }
      ],
      "stateMutability": "view",
      "type": "function",
      "constant": true
    },
    {
      "inputs": [],
      "name": "candidatesCount",
      "outputs": [
        {
          "internalType": "uint256",
          "name": "",
          "type": "uint256"
        }
      ],
      "stateMutability": "view",
      "type": "function",
      "constant": true
    },
    {
      "inputs": [],
      "name": "startTime",
      "outputs": [
        {
          "internalType": "uint256",
          "name": "",
          "type": "uint256"
        }
      ],
      "stateMutability": "view",
      "type": "function",
      "constant": true
    },
    {
      "inputs": [],
      "name": "stopTime",
      "outputs": [
        {
          "internalType": "uint256",
          "name": "",
          "type": "uint256"
        }
      ],
      "stateMutability": "view",
      "type": "function",
      "constant": true
    },
    {
      "inputs": [
        {
          "internalType": "address",
          "name": "",
          "type": "address"
        }
      ],
      "name": "voters",
      "outputs": [
        {
          "internalType": "uint256",
          "name": "",
          "type": "uint256"
        }
      ],
      "stateMutability": "view",
      "type": "function",
      "constant": true
    },
    {
      "inputs": [
        {
          "internalType": "address",
          "name": "_ec",
          "type": "address"
        }
      ],
      "name": "setEC",
      "outputs": [],
      "stateMutability": "nonpayable",
      "type": "function"
    },
    {
      "inputs": [
        {
          "internalType": "string",
          "name": "_name",
          "type": "string"
        }
      ],
      "name": "addCandidate",
      "outputs": [],
      "stateMutability": "payable",
      "type": "function",
      "payable": true
    },
    {
      "inputs": [
        {
          "internalType": "uint256",
          "name": "num",
          "type": "uint256"
        }
      ],
      "name": "approveCandidiate",
      "outputs": [],
      "stateMutability": "nonpayable",
      "type": "function"
    },
    {
      "inputs": [
        {
          "internalType": "uint256",
          "name": "num",
          "type": "uint256"
        }
      ],
      "name": "setStart",
      "outputs": [],
      "stateMutability": "nonpayable",
      "type": "function"
    },
    {
      "inputs": [
        {
          "internalType": "uint256",
          "name": "num",
          "type": "uint256"
        }
      ],
      "name": "setStop",
      "outputs": [],
      "stateMutability": "nonpayable",
      "type": "function"
    },
    {
      "inputs": [
        {
          "internalType": "uint256",
          "name": "_candidateId",
          "type": "uint256"
        }
      ],
      "name": "vote",
      "outputs": [],
      "stateMutability": "nonpayable",
      "type": "function"
    },
    {
      "inputs": [],
      "name": "getResults",
      "outputs": [
        {
          "components": [
            {
              "internalType": "bool",
              "name": "approved",
              "type": "bool"
            },
            {
              "internalType": "address",
              "name": "id",
              "type": "address"
            },
            {
              "internalType": "uint256",
              "name": "voteCount",
              "type": "uint256"
            },
            {
              "internalType": "string",
              "name": "candidateName",
              "type": "string"
            }
          ],
          "internalType": "struct Election2022.Candidate",
          "name": "candidate",
          "type": "tuple"
        }
      ],
      "stateMutability": "view",
      "type": "function",
      "constant": true
    },
    {
      "inputs": [],
      "name": "getTIME",
      "outputs": [
        {
          "internalType": "uint256",
          "name": "",
          "type": "uint256"
        }
      ],
      "stateMutability": "view",
      "type": "function",
      "constant": true
    }
  ],
  "bytecode": "0x60806040523480156200001157600080fd5b5060405162001f1938038062001f198339818101604052810190620000379190620000e9565b80600260006101000a81548173ffffffffffffffffffffffffffffffffffffffff021916908373ffffffffffffffffffffffffffffffffffffffff160217905550506200011b565b600080fd5b600073ffffffffffffffffffffffffffffffffffffffff82169050919050565b6000620000b18262000084565b9050919050565b620000c381620000a4565b8114620000cf57600080fd5b50565b600081519050620000e381620000b8565b92915050565b6000602082840312156200010257620001016200007f565b5b60006200011284828501620000d2565b91505092915050565b611dee806200012b6000396000f3fe6080604052600436106100c25760003560e01c806372c18df61161007f578063bc67a03e11610059578063bc67a03e1461025e578063c1d7b6a814610289578063c1f127e2146102b2578063f6a03ebf146102db576100c2565b806372c18df6146101cd57806378e97925146101f6578063a3ec138d14610221576100c2565b80630121b93f146100c757806303ff5e73146100f05780632d35a8a21461011b5780633477ee2e14610146578063462e91ec146101865780634717f97c146101a2575b600080fd5b3480156100d357600080fd5b506100ee60048036038101906100e99190610f9f565b610304565b005b3480156100fc57600080fd5b506101056105a2565b6040516101129190610fdb565b60405180910390f35b34801561012757600080fd5b506101306105a8565b60405161013d9190610fdb565b60405180910390f35b34801561015257600080fd5b5061016d60048036038101906101689190610f9f565b6105ae565b60405161017d94939291906110e2565b60405180910390f35b6101a0600480360381019061019b9190611263565b610693565b005b3480156101ae57600080fd5b506101b76108a1565b6040516101c49190611386565b60405180910390f35b3480156101d957600080fd5b506101f460048036038101906101ef9190610f9f565b610a86565b005b34801561020257600080fd5b5061020b610c56565b6040516102189190610fdb565b60405180910390f35b34801561022d57600080fd5b50610248600480360381019061024391906113d4565b610c5c565b6040516102559190610fdb565b60405180910390f35b34801561026a57600080fd5b50610273610c74565b6040516102809190610fdb565b60405180910390f35b34801561029557600080fd5b506102b060048036038101906102ab91906113d4565b610c7c565b005b3480156102be57600080fd5b506102d960048036038101906102d49190610f9f565b610d50565b005b3480156102e757600080fd5b5061030260048036038101906102fd9190610f9f565b610e39565b005b6005544211610348576040517f08c379a000000000000000000000000000000000000000000000000000000000815260040161033f9061144d565b60405180910390fd5b60065442111561038d576040517f08c379a0000000000000000000000000000000000000000000000000000000008152600401610384906114b9565b60405180910390fd5b60016000803373ffffffffffffffffffffffffffffffffffffffff1673ffffffffffffffffffffffffffffffffffffffff168152602001908152602001600020541061040e576040517f08c379a000000000000000000000000000000000000000000000000000000000815260040161040590611525565b60405180910390fd5b600073ffffffffffffffffffffffffffffffffffffffff166001600083815260200190815260200160002060000160019054906101000a900473ffffffffffffffffffffffffffffffffffffffff1673ffffffffffffffffffffffffffffffffffffffff16036104b3576040517f08c379a00000000000000000000000000000000000000000000000000000000081526004016104aa90611591565b60405180910390fd5b600115156001600083815260200190815260200160002060000160009054906101000a900460ff1615151461051d576040517f08c379a0000000000000000000000000000000000000000000000000000000008152600401610514906115fd565b60405180910390fd5b60016000803373ffffffffffffffffffffffffffffffffffffffff1673ffffffffffffffffffffffffffffffffffffffff168152602001908152602001600020600082825461056c919061164c565b9250508190555060016000828152602001908152602001600020600101600081548092919061059a90611680565b919050555050565b60065481565b60045481565b60016020528060005260406000206000915090508060000160009054906101000a900460ff16908060000160019054906101000a900473ffffffffffffffffffffffffffffffffffffffff1690806001015490806002018054610610906116f7565b80601f016020809104026020016040519081016040528092919081815260200182805461063c906116f7565b80156106895780601f1061065e57610100808354040283529160200191610689565b820191906000526020600020905b81548152906001019060200180831161066c57829003601f168201915b5050505050905084565b670de0b6b3a764000034146106dd576040517f08c379a00000000000000000000000000000000000000000000000000000000081526004016106d490611774565b60405180910390fd5b600460008154809291906106f090611680565b919050555060405180608001604052806000151581526020013373ffffffffffffffffffffffffffffffffffffffff168152602001600081526020018281525060016000600454815260200190815260200160002060008201518160000160006101000a81548160ff02191690831515021790555060208201518160000160016101000a81548173ffffffffffffffffffffffffffffffffffffffff021916908373ffffffffffffffffffffffffffffffffffffffff1602179055506040820151816001015560608201518160020190816107cb9190611940565b509050506000600360009054906101000a900473ffffffffffffffffffffffffffffffffffffffff1673ffffffffffffffffffffffffffffffffffffffff163460405161081790611a43565b60006040518083038185875af1925050503d8060008114610854576040519150601f19603f3d011682016040523d82523d6000602084013e610859565b606091505b505090508061089d576040517f08c379a000000000000000000000000000000000000000000000000000000000815260040161089490611aa4565b60405180910390fd5b5050565b6108a9610f15565b6006544210156108ee576040517f08c379a00000000000000000000000000000000000000000000000000000000081526004016108e590611b10565b60405180910390fd5b600080600090506000600190505b600454811161095357816001600083815260200190815260200160002060010154111561094057600160008281526020019081526020016000206001015491508092505b808061094b90611680565b9150506108fc565b50600160008381526020019081526020016000206040518060800160405290816000820160009054906101000a900460ff161515151581526020016000820160019054906101000a900473ffffffffffffffffffffffffffffffffffffffff1673ffffffffffffffffffffffffffffffffffffffff1673ffffffffffffffffffffffffffffffffffffffff168152602001600182015481526020016002820180546109fd906116f7565b80601f0160208091040260200160405190810160405280929190818152602001828054610a29906116f7565b8015610a765780601f10610a4b57610100808354040283529160200191610a76565b820191906000526020600020905b815481529060010190602001808311610a5957829003601f168201915b5050505050815250509250505090565b600360009054906101000a900473ffffffffffffffffffffffffffffffffffffffff1673ffffffffffffffffffffffffffffffffffffffff163373ffffffffffffffffffffffffffffffffffffffff1614610b16576040517f08c379a0000000000000000000000000000000000000000000000000000000008152600401610b0d90611b7c565b60405180910390fd5b600073ffffffffffffffffffffffffffffffffffffffff166001600083815260200190815260200160002060000160019054906101000a900473ffffffffffffffffffffffffffffffffffffffff1673ffffffffffffffffffffffffffffffffffffffff1603610bbb576040517f08c379a0000000000000000000000000000000000000000000000000000000008152600401610bb290611be8565b60405180910390fd5b600015156001600083815260200190815260200160002060000160009054906101000a900460ff16151514610c25576040517f08c379a0000000000000000000000000000000000000000000000000000000008152600401610c1c90611c54565b60405180910390fd5b600180600083815260200190815260200160002060000160006101000a81548160ff02191690831515021790555050565b60055481565b60006020528060005260406000206000915090505481565b600042905090565b600260009054906101000a900473ffffffffffffffffffffffffffffffffffffffff1673ffffffffffffffffffffffffffffffffffffffff163373ffffffffffffffffffffffffffffffffffffffff1614610d0c576040517f08c379a0000000000000000000000000000000000000000000000000000000008152600401610d0390611cc0565b60405180910390fd5b80600360006101000a81548173ffffffffffffffffffffffffffffffffffffffff021916908373ffffffffffffffffffffffffffffffffffffffff16021790555050565b600360009054906101000a900473ffffffffffffffffffffffffffffffffffffffff1673ffffffffffffffffffffffffffffffffffffffff163373ffffffffffffffffffffffffffffffffffffffff1614610de0576040517f08c379a0000000000000000000000000000000000000000000000000000000008152600401610dd790611b7c565b60405180910390fd5b4281118015610df0575060055481115b610e2f576040517f08c379a0000000000000000000000000000000000000000000000000000000008152600401610e2690611d2c565b60405180910390fd5b8060068190555050565b600360009054906101000a900473ffffffffffffffffffffffffffffffffffffffff1673ffffffffffffffffffffffffffffffffffffffff163373ffffffffffffffffffffffffffffffffffffffff1614610ec9576040517f08c379a0000000000000000000000000000000000000000000000000000000008152600401610ec090611b7c565b60405180910390fd5b428111610f0b576040517f08c379a0000000000000000000000000000000000000000000000000000000008152600401610f0290611d98565b60405180910390fd5b8060058190555050565b6040518060800160405280600015158152602001600073ffffffffffffffffffffffffffffffffffffffff16815260200160008152602001606081525090565b6000604051905090565b600080fd5b600080fd5b6000819050919050565b610f7c81610f69565b8114610f8757600080fd5b50565b600081359050610f9981610f73565b92915050565b600060208284031215610fb557610fb4610f5f565b5b6000610fc384828501610f8a565b91505092915050565b610fd581610f69565b82525050565b6000602082019050610ff06000830184610fcc565b92915050565b60008115159050919050565b61100b81610ff6565b82525050565b600073ffffffffffffffffffffffffffffffffffffffff82169050919050565b600061103c82611011565b9050919050565b61104c81611031565b82525050565b600081519050919050565b600082825260208201905092915050565b60005b8381101561108c578082015181840152602081019050611071565b60008484015250505050565b6000601f19601f8301169050919050565b60006110b482611052565b6110be818561105d565b93506110ce81856020860161106e565b6110d781611098565b840191505092915050565b60006080820190506110f76000830187611002565b6111046020830186611043565b6111116040830185610fcc565b818103606083015261112381846110a9565b905095945050505050565b600080fd5b600080fd5b7f4e487b7100000000000000000000000000000000000000000000000000000000600052604160045260246000fd5b61117082611098565b810181811067ffffffffffffffff8211171561118f5761118e611138565b5b80604052505050565b60006111a2610f55565b90506111ae8282611167565b919050565b600067ffffffffffffffff8211156111ce576111cd611138565b5b6111d782611098565b9050602081019050919050565b82818337600083830152505050565b6000611206611201846111b3565b611198565b90508281526020810184848401111561122257611221611133565b5b61122d8482856111e4565b509392505050565b600082601f83011261124a5761124961112e565b5b813561125a8482602086016111f3565b91505092915050565b60006020828403121561127957611278610f5f565b5b600082013567ffffffffffffffff81111561129757611296610f64565b5b6112a384828501611235565b91505092915050565b6112b581610ff6565b82525050565b6112c481611031565b82525050565b6112d381610f69565b82525050565b600082825260208201905092915050565b60006112f582611052565b6112ff81856112d9565b935061130f81856020860161106e565b61131881611098565b840191505092915050565b600060808301600083015161133b60008601826112ac565b50602083015161134e60208601826112bb565b50604083015161136160408601826112ca565b506060830151848203606086015261137982826112ea565b9150508091505092915050565b600060208201905081810360008301526113a08184611323565b905092915050565b6113b181611031565b81146113bc57600080fd5b50565b6000813590506113ce816113a8565b92915050565b6000602082840312156113ea576113e9610f5f565b5b60006113f8848285016113bf565b91505092915050565b7f456c656374696f6e206e6f742073746172746564000000000000000000000000600082015250565b600061143760148361105d565b915061144282611401565b602082019050919050565b600060208201905081810360008301526114668161142a565b9050919050565b7f456c656374696f6e206f76657200000000000000000000000000000000000000600082015250565b60006114a3600d8361105d565b91506114ae8261146d565b602082019050919050565b600060208201905081810360008301526114d281611496565b9050919050565b7f616c726561647920766f74656400000000000000000000000000000000000000600082015250565b600061150f600d8361105d565b915061151a826114d9565b602082019050919050565b6000602082019050818103600083015261153e81611502565b9050919050565b7f4e6f74207265676973746572656420636f6e6469646174650000000000000000600082015250565b600061157b60188361105d565b915061158682611545565b602082019050919050565b600060208201905081810360008301526115aa8161156e565b9050919050565b7f446f6e7420766f7465206e6f7420617070726f76656400000000000000000000600082015250565b60006115e760168361105d565b91506115f2826115b1565b602082019050919050565b60006020820190508181036000830152611616816115da565b9050919050565b7f4e487b7100000000000000000000000000000000000000000000000000000000600052601160045260246000fd5b600061165782610f69565b915061166283610f69565b925082820190508082111561167a5761167961161d565b5b92915050565b600061168b82610f69565b91507fffffffffffffffffffffffffffffffffffffffffffffffffffffffffffffffff82036116bd576116bc61161d565b5b600182019050919050565b7f4e487b7100000000000000000000000000000000000000000000000000000000600052602260045260246000fd5b6000600282049050600182168061170f57607f821691505b602082108103611722576117216116c8565b5b50919050565b7f417070726f707261697465206574686572206e6f74206e657874000000000000600082015250565b600061175e601a8361105d565b915061176982611728565b602082019050919050565b6000602082019050818103600083015261178d81611751565b9050919050565b60008190508160005260206000209050919050565b60006020601f8301049050919050565b600082821b905092915050565b6000600883026117f67fffffffffffffffffffffffffffffffffffffffffffffffffffffffffffffffff826117b9565b61180086836117b9565b95508019841693508086168417925050509392505050565b6000819050919050565b600061183d61183861183384610f69565b611818565b610f69565b9050919050565b6000819050919050565b61185783611822565b61186b61186382611844565b8484546117c6565b825550505050565b600090565b611880611873565b61188b81848461184e565b505050565b5b818110156118af576118a4600082611878565b600181019050611891565b5050565b601f8211156118f4576118c581611794565b6118ce846117a9565b810160208510156118dd578190505b6118f16118e9856117a9565b830182611890565b50505b505050565b600082821c905092915050565b6000611917600019846008026118f9565b1980831691505092915050565b60006119308383611906565b9150826002028217905092915050565b61194982611052565b67ffffffffffffffff81111561196257611961611138565b5b61196c82546116f7565b6119778282856118b3565b600060209050601f8311600181146119aa5760008415611998578287015190505b6119a28582611924565b865550611a0a565b601f1984166119b886611794565b60005b828110156119e0578489015182556001820191506020850194506020810190506119bb565b868310156119fd57848901516119f9601f891682611906565b8355505b6001600288020188555050505b505050505050565b600081905092915050565b50565b6000611a2d600083611a12565b9150611a3882611a1d565b600082019050919050565b6000611a4e82611a20565b9150819050919050565b7f4661696c656420746f2073656e64204574686572000000000000000000000000600082015250565b6000611a8e60148361105d565b9150611a9982611a58565b602082019050919050565b60006020820190508181036000830152611abd81611a81565b9050919050565b7f456c656374696f6e2079657420746f2066696e69736800000000000000000000600082015250565b6000611afa60168361105d565b9150611b0582611ac4565b602082019050919050565b60006020820190508181036000830152611b2981611aed565b9050919050565b7f4543206f6e6c79206f7065726174696f6e000000000000000000000000000000600082015250565b6000611b6660118361105d565b9150611b7182611b30565b602082019050919050565b60006020820190508181036000830152611b9581611b59565b9050919050565b7f4e6f742072656769737465726564000000000000000000000000000000000000600082015250565b6000611bd2600e8361105d565b9150611bdd82611b9c565b602082019050919050565b60006020820190508181036000830152611c0181611bc5565b9050919050565b7f416c726561647920617070726f76656400000000000000000000000000000000600082015250565b6000611c3e60108361105d565b9150611c4982611c08565b602082019050919050565b60006020820190508181036000830152611c6d81611c31565b9050919050565b7f45432061646d696e206f6e6c79206f7065726174696f6e000000000000000000600082015250565b6000611caa60178361105d565b9150611cb582611c74565b602082019050919050565b60006020820190508181036000830152611cd981611c9d565b9050919050565b7f53746f70206174206c617465722074696d650000000000000000000000000000600082015250565b6000611d1660128361105d565b9150611d2182611ce0565b602082019050919050565b60006020820190508181036000830152611d4581611d09565b9050919050565b7f5374617274206174206c617465722074696d6500000000000000000000000000600082015250565b6000611d8260138361105d565b9150611d8d82611d4c565b602082019050919050565b60006020820190508181036000830152611db181611d75565b905091905056fea26469706673582212205ffa2915276afe3e7e493d40b7fe026317e9eff454aa130dc1a333a88d30f92f64736f6c63430008100033",
  "immutableReferences": {},
  "source": "// SPDX-License-Identifier: MIT\r\npragma solidity ^0.8.7;\r\n\r\ncontract Election2022 {\r\n    //defining structure with mutliple candidate variables\r\n    struct Candidate{\r\n        bool approved;\r\n        address id;\r\n        uint voteCount;\r\n        string candidateName;\r\n    }\r\n    \r\n    //Giving references using mapping\r\n    mapping (address=>uint) public voters;\r\n\r\n    mapping (uint=> Candidate)public candidates;\r\n\r\n    address ecadmin;\r\n    address ec;\r\n\r\n    uint public candidatesCount;\r\n    uint256 public startTime;\r\n    uint256 public stopTime;\r\n\r\n\r\n    constructor( address _admin) {\r\n        ecadmin = _admin;\r\n    }\r\n\r\n    modifier ecOnly() {\r\n        require(msg.sender == address(ec),\"EC only operation\");\r\n        _;\r\n    }\r\n\r\n    modifier ecAdminOnly() {\r\n        require(msg.sender == ecadmin,\"EC admin only operation\");\r\n        _;\r\n    }\r\n\r\n    function setEC(address _ec) public ecAdminOnly {\r\n        ec = _ec;\r\n    }\r\n\r\n    function addCandidate(string memory _name) public payable  {\r\n        require(msg.value == 1 ether,\"Appropraite ether not next\");\r\n        // is the candidate already registered.\r\n        candidatesCount++;\r\n        candidates[candidatesCount]=Candidate(false,msg.sender,0,_name);\r\n\r\n        (bool success, ) = payable(ec).call{value: msg.value}(\"\");\r\n        // bool success = payable(ec).send(msg.value);\r\n        // payable(ec).transfer(msg.value);\r\n        require(success, \"Failed to send Ether\");\r\n    }   \r\n\r\n    function approveCandidiate(uint256 num) external ecOnly {\r\n        require(candidates[num].id != address(0x00), \"Not registered\" );\r\n        require(candidates[num].approved == false, \"Already approved\" );\r\n        candidates[num].approved = true;\r\n    }\r\n\r\n    function setStart(uint256 num) external ecOnly {\r\n        require(num > block.timestamp,\"Start at later time\" );\r\n        startTime = num;\r\n    }\r\n\r\n    function setStop(uint256 num) external ecOnly {\r\n        require(num > block.timestamp && num > startTime,\"Stop at later time\" );\r\n        stopTime = num;\r\n    }\r\n\r\n    event consolePrint( string, address);\r\n\r\n    function vote(uint _candidateId) public{\r\n        require(block.timestamp > startTime,\"Election not started\" );\r\n        require(block.timestamp <= stopTime,\"Election over\" );\r\n        require(voters[msg.sender] <1,\"already voted\");\r\n        require(candidates[_candidateId].id != address(0x00), \"Not registered condidate\" );\r\n        require(candidates[_candidateId].approved == true, \"Dont vote not approved\" );\r\n\r\n        voters[msg.sender] += 1;\r\n        candidates[_candidateId].voteCount++;\r\n\r\n    }\r\n\r\n    function getResults() public view returns (Candidate memory candidate) {\r\n        require(block.timestamp >= stopTime,\"Election yet to finish\" );\r\n        uint256 c;\r\n        uint256 max=0;\r\n        for( uint i =1; i<=candidatesCount; i++) {\r\n            if ( candidates[i].voteCount > max ) {\r\n                max = candidates[i].voteCount;\r\n                c = i;\r\n            }\r\n        }\r\n\r\n        return candidates[c];\r\n    }\r\n\r\n    function getTIME() public view returns (uint256){\r\n        return block.timestamp;\r\n    }\r\n\r\n}",
  "sourcePath": "C:\\Users\\sakha\\Projects\\newele\\contracts\\Election2022.sol",
  "compiler": {
    "name": "solc",
    "version": "0.8.16+commit.07a7930e.Emscripten.clang"
  },
  "schemaVersion": "3.4.9",
  "updatedAt": "2022-10-12T05:11:48.237Z",
  "networkType": "ethereum",
  "devdoc": {
    "kind": "dev",
    "methods": {},
    "version": 1
  },
  "userdoc": {
    "kind": "user",
    "methods": {},
    "version": 1
  }
}