{
  "contractName": "MultiSigWallet",
  "abi": [
    {
      "inputs": [
        {
          "internalType": "address[]",
          "name": "_owners",
          "type": "address[]"
        },
        {
          "internalType": "uint8",
          "name": "count",
          "type": "uint8"
        }
      ],
      "stateMutability": "nonpayable",
      "type": "constructor"
    },
    {
      "inputs": [],
      "name": "approvalcount",
      "outputs": [
        {
          "internalType": "uint8",
          "name": "",
          "type": "uint8"
        }
      ],
      "stateMutability": "view",
      "type": "function"
    },
    {
      "inputs": [],
      "name": "balance",
      "outputs": [
        {
          "internalType": "uint256",
          "name": "",
          "type": "uint256"
        }
      ],
      "stateMutability": "view",
      "type": "function"
    },
    {
      "inputs": [
        {
          "internalType": "uint256",
          "name": "",
          "type": "uint256"
        },
        {
          "internalType": "address",
          "name": "",
          "type": "address"
        }
      ],
      "name": "ownerApprovals",
      "outputs": [
        {
          "internalType": "bool",
          "name": "",
          "type": "bool"
        }
      ],
      "stateMutability": "view",
      "type": "function"
    },
    {
      "inputs": [
        {
          "internalType": "uint256",
          "name": "",
          "type": "uint256"
        }
      ],
      "name": "transactions",
      "outputs": [
        {
          "internalType": "bool",
          "name": "executed",
          "type": "bool"
        },
        {
          "internalType": "uint8",
          "name": "approvals",
          "type": "uint8"
        },
        {
          "internalType": "address",
          "name": "to",
          "type": "address"
        },
        {
          "internalType": "uint256",
          "name": "value",
          "type": "uint256"
        },
        {
          "internalType": "bytes",
          "name": "data",
          "type": "bytes"
        }
      ],
      "stateMutability": "view",
      "type": "function"
    },
    {
      "stateMutability": "payable",
      "type": "receive"
    },
    {
      "inputs": [],
      "name": "getOwners",
      "outputs": [
        {
          "internalType": "address[]",
          "name": "",
          "type": "address[]"
        }
      ],
      "stateMutability": "view",
      "type": "function"
    },
    {
      "inputs": [
        {
          "internalType": "address",
          "name": "to",
          "type": "address"
        },
        {
          "internalType": "uint256",
          "name": "value",
          "type": "uint256"
        },
        {
          "internalType": "bytes",
          "name": "data",
          "type": "bytes"
        }
      ],
      "name": "submitTransaction",
      "outputs": [],
      "stateMutability": "nonpayable",
      "type": "function"
    },
    {
      "inputs": [
        {
          "internalType": "uint256",
          "name": "tID",
          "type": "uint256"
        }
      ],
      "name": "approveTransaction",
      "outputs": [],
      "stateMutability": "nonpayable",
      "type": "function"
    },
    {
      "inputs": [
        {
          "internalType": "uint256",
          "name": "tID",
          "type": "uint256"
        }
      ],
      "name": "executeTransaction",
      "outputs": [],
      "stateMutability": "nonpayable",
      "type": "function"
    },
    {
      "inputs": [
        {
          "internalType": "uint256",
          "name": "tID",
          "type": "uint256"
        }
      ],
      "name": "revertApproval",
      "outputs": [],
      "stateMutability": "nonpayable",
      "type": "function"
    },
    {
      "inputs": [],
      "name": "contribute",
      "outputs": [],
      "stateMutability": "payable",
      "type": "function"
    }
  ],
  "bytecode": "0x60806040523480156200001157600080fd5b5060405162001db138038062001db183398181016040528101906200003791906200034c565b81600190805190602001906200004f92919062000072565b50806000806101000a81548160ff021916908360ff1602179055505050620003b2565b828054828255906000526020600020908101928215620000ee579160200282015b82811115620000ed5782518260006101000a81548173ffffffffffffffffffffffffffffffffffffffff021916908373ffffffffffffffffffffffffffffffffffffffff1602179055509160200191906001019062000093565b5b509050620000fd919062000101565b5090565b5b808211156200011c57600081600090555060010162000102565b5090565b6000604051905090565b600080fd5b600080fd5b600080fd5b6000601f19601f8301169050919050565b7f4e487b7100000000000000000000000000000000000000000000000000000000600052604160045260246000fd5b620001848262000139565b810181811067ffffffffffffffff82111715620001a657620001a56200014a565b5b80604052505050565b6000620001bb62000120565b9050620001c9828262000179565b919050565b600067ffffffffffffffff821115620001ec57620001eb6200014a565b5b602082029050602081019050919050565b600080fd5b600073ffffffffffffffffffffffffffffffffffffffff82169050919050565b60006200022f8262000202565b9050919050565b620002418162000222565b81146200024d57600080fd5b50565b600081519050620002618162000236565b92915050565b60006200027e6200027884620001ce565b620001af565b90508083825260208201905060208402830185811115620002a457620002a3620001fd565b5b835b81811015620002d15780620002bc888262000250565b845260208401935050602081019050620002a6565b5050509392505050565b600082601f830112620002f357620002f262000134565b5b81516200030584826020860162000267565b91505092915050565b600060ff82169050919050565b62000326816200030e565b81146200033257600080fd5b50565b60008151905062000346816200031b565b92915050565b600080604083850312156200036657620003656200012a565b5b600083015167ffffffffffffffff8111156200038757620003866200012f565b5b6200039585828601620002db565b9250506020620003a88582860162000335565b9150509250929050565b6119ef80620003c26000396000f3fe6080604052600436106100955760003560e01c8063a0e67e2b11610059578063a0e67e2b1461019c578063b69ef8a8146101c7578063c6427474146101f2578063d7bb99ba1461021b578063ee22610b146102255761009c565b806321a59bba146100a1578063242232d1146100de578063678d18041461010757806374da3b1f146101325780639ace38c21461015b5761009c565b3661009c57005b600080fd5b3480156100ad57600080fd5b506100c860048036038101906100c39190610fe3565b61024e565b6040516100d5919061103e565b60405180910390f35b3480156100ea57600080fd5b5061010560048036038101906101009190611059565b61027d565b005b34801561011357600080fd5b5061011c6104da565b60405161012991906110a2565b60405180910390f35b34801561013e57600080fd5b5061015960048036038101906101549190611059565b6104eb565b005b34801561016757600080fd5b50610182600480360381019061017d9190611059565b61070b565b604051610193959493929190611174565b60405180910390f35b3480156101a857600080fd5b506101b1610803565b6040516101be919061128c565b60405180910390f35b3480156101d357600080fd5b506101dc610891565b6040516101e991906112ae565b60405180910390f35b3480156101fe57600080fd5b506102196004803603810190610214919061132e565b610897565b005b610223610abf565b005b34801561023157600080fd5b5061024c60048036038101906102479190611059565b610ada565b005b60046020528160005260406000206020528060005260406000206000915091509054906101000a900460ff1681565b61028633610dee565b6102c5576040517f08c379a00000000000000000000000000000000000000000000000000000000081526004016102bc906113ff565b60405180910390fd5b80600073ffffffffffffffffffffffffffffffffffffffff166003600083815260200190815260200160002060000160029054906101000a900473ffffffffffffffffffffffffffffffffffffffff1673ffffffffffffffffffffffffffffffffffffffff160361036b576040517f08c379a0000000000000000000000000000000000000000000000000000000008152600401610362906113ff565b60405180910390fd5b600015156004600084815260200190815260200160002060003373ffffffffffffffffffffffffffffffffffffffff1673ffffffffffffffffffffffffffffffffffffffff16815260200190815260200160002060009054906101000a900460ff1615151461040f576040517f08c379a00000000000000000000000000000000000000000000000000000000081526004016104069061146b565b60405180910390fd5b60016004600084815260200190815260200160002060003373ffffffffffffffffffffffffffffffffffffffff1673ffffffffffffffffffffffffffffffffffffffff16815260200190815260200160002060006101000a81548160ff02191690831515021790555060016003600084815260200190815260200160002060000160019054906101000a900460ff166104a891906114ba565b6003600084815260200190815260200160002060000160016101000a81548160ff021916908360ff1602179055505050565b60008054906101000a900460ff1681565b6104f433610dee565b610533576040517f08c379a000000000000000000000000000000000000000000000000000000000815260040161052a906113ff565b60405180910390fd5b600115156003600083815260200190815260200160002060000160009054906101000a900460ff1615150361059d576040517f08c379a00000000000000000000000000000000000000000000000000000000081526004016105949061153d565b60405180910390fd5b600015156004600083815260200190815260200160002060003373ffffffffffffffffffffffffffffffffffffffff1673ffffffffffffffffffffffffffffffffffffffff16815260200190815260200160002060009054906101000a900460ff16151503610641576040517f08c379a0000000000000000000000000000000000000000000000000000000008152600401610638906115a9565b60405180910390fd5b60006004600083815260200190815260200160002060003373ffffffffffffffffffffffffffffffffffffffff1673ffffffffffffffffffffffffffffffffffffffff16815260200190815260200160002060006101000a81548160ff02191690831515021790555060016003600083815260200190815260200160002060000160019054906101000a900460ff166106da91906115c9565b6003600083815260200190815260200160002060000160016101000a81548160ff021916908360ff16021790555050565b60036020528060005260406000206000915090508060000160009054906101000a900460ff16908060000160019054906101000a900460ff16908060000160029054906101000a900473ffffffffffffffffffffffffffffffffffffffff16908060010154908060020180546107809061162c565b80601f01602080910402602001604051908101604052809291908181526020018280546107ac9061162c565b80156107f95780601f106107ce576101008083540402835291602001916107f9565b820191906000526020600020905b8154815290600101906020018083116107dc57829003601f168201915b5050505050905085565b6060600180548060200260200160405190810160405280929190818152602001828054801561088757602002820191906000526020600020905b8160009054906101000a900473ffffffffffffffffffffffffffffffffffffffff1673ffffffffffffffffffffffffffffffffffffffff168152602001906001019080831161083d575b5050505050905090565b60055481565b6108a033610dee565b6108df576040517f08c379a00000000000000000000000000000000000000000000000000000000081526004016108d6906113ff565b60405180910390fd5b600073ffffffffffffffffffffffffffffffffffffffff168473ffffffffffffffffffffffffffffffffffffffff160361094e576040517f08c379a0000000000000000000000000000000000000000000000000000000008152600401610945906116a9565b60405180910390fd5b60006040518060a00160405280600015158152602001600060ff1681526020018673ffffffffffffffffffffffffffffffffffffffff16815260200185815260200184848080601f016020809104026020016040519081016040528093929190818152602001838380828437600081840152601f19601f8201169050808301925050505050505081525090508060036000600254815260200190815260200160002060008201518160000160006101000a81548160ff02191690831515021790555060208201518160000160016101000a81548160ff021916908360ff16021790555060408201518160000160026101000a81548173ffffffffffffffffffffffffffffffffffffffff021916908373ffffffffffffffffffffffffffffffffffffffff160217905550606082015181600101556080820151816002019080519060200190610a9e929190610ea2565b50905050600260008154610ab1906116c9565b919050819055505050505050565b3460056000828254610ad19190611711565b92505081905550565b610ae333610dee565b610b22576040517f08c379a0000000000000000000000000000000000000000000000000000000008152600401610b19906113ff565b60405180910390fd5b80600073ffffffffffffffffffffffffffffffffffffffff166003600083815260200190815260200160002060000160029054906101000a900473ffffffffffffffffffffffffffffffffffffffff1673ffffffffffffffffffffffffffffffffffffffff1603610bc8576040517f08c379a0000000000000000000000000000000000000000000000000000000008152600401610bbf906113ff565b60405180910390fd5b600015156003600084815260200190815260200160002060000160009054906101000a900460ff16151514610c32576040517f08c379a0000000000000000000000000000000000000000000000000000000008152600401610c29906117b3565b60405180910390fd5b60008054906101000a900460ff1660ff166003600084815260200190815260200160002060000160019054906101000a900460ff1660ff161015610cab576040517f08c379a0000000000000000000000000000000000000000000000000000000008152600401610ca29061181f565b60405180910390fd5b60016003600084815260200190815260200160002060000160006101000a81548160ff02191690831515021790555060006003600084815260200190815260200160002060000160029054906101000a900473ffffffffffffffffffffffffffffffffffffffff1673ffffffffffffffffffffffffffffffffffffffff16600360008581526020019081526020016000206001015460036000868152602001908152602001600020600201604051610d6391906118de565b60006040518083038185875af1925050503d8060008114610da0576040519150601f19603f3d011682016040523d82523d6000602084013e610da5565b606091505b5050905080610de9576040517f08c379a0000000000000000000000000000000000000000000000000000000008152600401610de090611941565b60405180910390fd5b505050565b6000806000905060005b6001805490508160ff161015610e985760018160ff1681548110610e1f57610e1e611961565b5b9060005260206000200160009054906101000a900473ffffffffffffffffffffffffffffffffffffffff1673ffffffffffffffffffffffffffffffffffffffff168473ffffffffffffffffffffffffffffffffffffffff1603610e855760019150610e98565b8080610e9090611990565b915050610df8565b5080915050919050565b828054610eae9061162c565b90600052602060002090601f016020900481019282610ed05760008555610f17565b82601f10610ee957805160ff1916838001178555610f17565b82800160010185558215610f17579182015b82811115610f16578251825591602001919060010190610efb565b5b509050610f249190610f28565b5090565b5b80821115610f41576000816000905550600101610f29565b5090565b600080fd5b600080fd5b6000819050919050565b610f6281610f4f565b8114610f6d57600080fd5b50565b600081359050610f7f81610f59565b92915050565b600073ffffffffffffffffffffffffffffffffffffffff82169050919050565b6000610fb082610f85565b9050919050565b610fc081610fa5565b8114610fcb57600080fd5b50565b600081359050610fdd81610fb7565b92915050565b60008060408385031215610ffa57610ff9610f45565b5b600061100885828601610f70565b925050602061101985828601610fce565b9150509250929050565b60008115159050919050565b61103881611023565b82525050565b6000602082019050611053600083018461102f565b92915050565b60006020828403121561106f5761106e610f45565b5b600061107d84828501610f70565b91505092915050565b600060ff82169050919050565b61109c81611086565b82525050565b60006020820190506110b76000830184611093565b92915050565b6110c681610fa5565b82525050565b6110d581610f4f565b82525050565b600081519050919050565b600082825260208201905092915050565b60005b838110156111155780820151818401526020810190506110fa565b83811115611124576000848401525b50505050565b6000601f19601f8301169050919050565b6000611146826110db565b61115081856110e6565b93506111608185602086016110f7565b6111698161112a565b840191505092915050565b600060a082019050611189600083018861102f565b6111966020830187611093565b6111a360408301866110bd565b6111b060608301856110cc565b81810360808301526111c2818461113b565b90509695505050505050565b600081519050919050565b600082825260208201905092915050565b6000819050602082019050919050565b61120381610fa5565b82525050565b600061121583836111fa565b60208301905092915050565b6000602082019050919050565b6000611239826111ce565b61124381856111d9565b935061124e836111ea565b8060005b8381101561127f5781516112668882611209565b975061127183611221565b925050600181019050611252565b5085935050505092915050565b600060208201905081810360008301526112a6818461122e565b905092915050565b60006020820190506112c360008301846110cc565b92915050565b600080fd5b600080fd5b600080fd5b60008083601f8401126112ee576112ed6112c9565b5b8235905067ffffffffffffffff81111561130b5761130a6112ce565b5b602083019150836001820283011115611327576113266112d3565b5b9250929050565b6000806000806060858703121561134857611347610f45565b5b600061135687828801610fce565b945050602061136787828801610f70565b935050604085013567ffffffffffffffff81111561138857611387610f4a565b5b611394878288016112d8565b925092505092959194509250565b600082825260208201905092915050565b7f4e6f204f776e6572000000000000000000000000000000000000000000000000600082015250565b60006113e96008836113a2565b91506113f4826113b3565b602082019050919050565b60006020820190508181036000830152611418816113dc565b9050919050565b7f616c726561647920617070726f76656400000000000000000000000000000000600082015250565b60006114556010836113a2565b91506114608261141f565b602082019050919050565b6000602082019050818103600083015261148481611448565b9050919050565b7f4e487b7100000000000000000000000000000000000000000000000000000000600052601160045260246000fd5b60006114c582611086565b91506114d083611086565b92508260ff038211156114e6576114e561148b565b5b828201905092915050565b7f43616e2774206265207265766572740000000000000000000000000000000000600082015250565b6000611527600f836113a2565b9150611532826114f1565b602082019050919050565b600060208201905081810360008301526115568161151a565b9050919050565b7f4e6f206e65656420746f20726576657274000000000000000000000000000000600082015250565b60006115936011836113a2565b915061159e8261155d565b602082019050919050565b600060208201905081810360008301526115c281611586565b9050919050565b60006115d482611086565b91506115df83611086565b9250828210156115f2576115f161148b565b5b828203905092915050565b7f4e487b7100000000000000000000000000000000000000000000000000000000600052602260045260246000fd5b6000600282049050600182168061164457607f821691505b602082108103611657576116566115fd565b5b50919050565b7f5a65726f20616464726573730000000000000000000000000000000000000000600082015250565b6000611693600c836113a2565b915061169e8261165d565b602082019050919050565b600060208201905081810360008301526116c281611686565b9050919050565b60006116d482610f4f565b91507fffffffffffffffffffffffffffffffffffffffffffffffffffffffffffffffff82036117065761170561148b565b5b600182019050919050565b600061171c82610f4f565b915061172783610f4f565b9250827fffffffffffffffffffffffffffffffffffffffffffffffffffffffffffffffff0382111561175c5761175b61148b565b5b828201905092915050565b7f616c726561647920657865637574656400000000000000000000000000000000600082015250565b600061179d6010836113a2565b91506117a882611767565b602082019050919050565b600060208201905081810360008301526117cc81611790565b9050919050565b7f63616e6e6f742065786563757465000000000000000000000000000000000000600082015250565b6000611809600e836113a2565b9150611814826117d3565b602082019050919050565b60006020820190508181036000830152611838816117fc565b9050919050565b600081905092915050565b60008190508160005260206000209050919050565b6000815461186c8161162c565b611876818661183f565b9450600182166000811461189157600181146118a2576118d5565b60ff198316865281860193506118d5565b6118ab8561184a565b60005b838110156118cd578154818901526001820191506020810190506118ae565b838801955050505b50505092915050565b60006118ea828461185f565b915081905092915050565b7f7472616e73616374696f6e206661696c65640000000000000000000000000000600082015250565b600061192b6012836113a2565b9150611936826118f5565b602082019050919050565b6000602082019050818103600083015261195a8161191e565b9050919050565b7f4e487b7100000000000000000000000000000000000000000000000000000000600052603260045260246000fd5b600061199b82611086565b915060ff82036119ae576119ad61148b565b5b60018201905091905056fea26469706673582212204bf88cab40fc54fdaf755efb6abf7329c84c0f7740622daa70065750c5ed2d0664736f6c634300080d0033",
  "immutableReferences": {},
  "source": "// SPDX-License-Identifier: MIT\r\npragma solidity ^0.8.13;\r\n \r\ncontract MultiSigWallet {\r\n \r\n    struct transaction {\r\n        bool executed;\r\n        uint8 approvals;\r\n        address to;\r\n        uint256 value;\r\n        bytes data;\r\n    }\r\n \r\n    uint8 public approvalcount;\r\n    address[] owners;\r\n    uint256 transactionId;\r\n    mapping(uint256 => transaction) public transactions;\r\n    mapping( uint256 => mapping(address=>bool)) public ownerApprovals;\r\n \r\n    constructor(address[] memory _owners,  uint8 count) {\r\n        owners = _owners;\r\n        approvalcount = count;\r\n    }\r\n \r\n    receive() external payable {}\r\n \r\n    function isOwner (address o) private view returns (bool){\r\n        bool flag = false;\r\n        for(uint8 i =0; i < owners.length ; i++){\r\n            if( o == owners[i]){\r\n                flag = true;\r\n                break;\r\n            }\r\n        }\r\n        return flag;\r\n    }\r\n \r\n    modifier onlyOwner()  {\r\n        require(isOwner(msg.sender),\"No Owner\");\r\n        _;\r\n    }\r\n \r\n    modifier isTransaction(uint256 tId)  {\r\n        require(transactions[tId].to != address(0x00), \"No Owner\");\r\n        _;\r\n    }\r\n \r\n    function getOwners() external view returns (address[] memory) {\r\n        return owners;\r\n    }\r\n \r\n    function submitTransaction(address to, uint256 value, bytes calldata data) external onlyOwner {\r\n        //check\r\n        require(to != address(0x00),\"Zero address\");\r\n        transaction memory t = transaction(false, 0, to, value, data);\r\n        transactions[transactionId] = t;\r\n        ++transactionId;\r\n    }\r\n \r\n    function approveTransaction( uint256 tID) external onlyOwner isTransaction(tID) {\r\n        require(ownerApprovals[tID][msg.sender] == false, \"already approved\");\r\n \r\n        // logic\r\n        ownerApprovals[tID][msg.sender] = true;\r\n        transactions[tID].approvals = transactions[tID].approvals + 1;\r\n    }\r\n \r\n    function executeTransaction( uint256 tID) external onlyOwner isTransaction(tID) {\r\n        //check\r\n        require( transactions[tID].executed == false, \"already executed\");\r\n        require(transactions[tID].approvals >= approvalcount, \"cannot execute\");\r\n \r\n        // update state\r\n        transactions[tID].executed =true;\r\n \r\n        // go out of the contract\r\n        (bool status, ) = transactions[tID].to.call{value: transactions[tID].value}( transactions[tID].data);\r\n \r\n        require(status,\"transaction failed\");\r\n \r\n    }\r\n   \r\n    function revertApproval(uint256 tID) external onlyOwner {\r\n        require(transactions[tID].executed != true, \"Can't be revert\");\r\n\r\n        require(ownerApprovals[tID][msg.sender] != false, \"No need to revert\");\r\n        \r\n        ownerApprovals[tID][msg.sender] = false;\r\n\r\n        transactions[tID].approvals = transactions[tID].approvals - 1;\r\n     }\r\n     uint public balance;\r\n    function contribute() public payable\r\n    {\r\n        // msg.value is the value of Ether sent in a transaction\r\n        balance += msg.value;\r\n    }\r\n}\r\n\r\n//[\"0x5B38Da6a701c568545dCfcB03FcB875f56beddC4\",\"0xAb8483F64d9C6d1EcF9b849Ae677dD3315835cb2\",\"0x4B20993Bc481177ec7E8f571ceCaE8A9e22C02db\"]",
  "sourcePath": "C:\\Users\\sakha\\Projects\\Multisign\\contracts\\MultiSigWallet.sol",
  "compiler": {
    "name": "solc",
    "version": "0.8.13+commit.abaa5c0e.Emscripten.clang"
  },
  "schemaVersion": "3.4.9",
  "updatedAt": "2022-10-11T08:27:30.328Z",
  "devdoc": {
    "kind": "dev",
    "methods": {},
    "version": 1
  },
  "userdoc": {
    "kind": "user",
    "methods": {},
    "version": 1
  }
}