{
  "contractName": "TestContract",
  "abi": [
    {
      "inputs": [],
      "name": "i",
      "outputs": [
        {
          "internalType": "uint256",
          "name": "",
          "type": "uint256"
        }
      ],
      "stateMutability": "view",
      "type": "function"
    },
    {
      "inputs": [
        {
          "internalType": "uint256",
          "name": "j",
          "type": "uint256"
        }
      ],
      "name": "callMe",
      "outputs": [],
      "stateMutability": "payable",
      "type": "function"
    },
    {
      "inputs": [],
      "name": "getData",
      "outputs": [
        {
          "internalType": "bytes",
          "name": "",
          "type": "bytes"
        }
      ],
      "stateMutability": "pure",
      "type": "function"
    }
  ],
  "bytecode": "0x608060405234801561001057600080fd5b506103d7806100206000396000f3fe6080604052600436106100345760003560e01c80633bc5de3014610039578063e5aa3d5814610064578063e73620c31461008f575b600080fd5b34801561004557600080fd5b5061004e6100ab565b60405161005b91906101fb565b60405180910390f35b34801561007057600080fd5b50610079610141565b6040516100869190610236565b60405180910390f35b6100a960048036038101906100a49190610282565b610147565b005b6060607b6040516024016100bf9190610301565b6040516020818303038152906040527fe73620c3000000000000000000000000000000000000000000000000000000007bffffffffffffffffffffffffffffffffffffffffffffffffffffffff19166020820180517bffffffffffffffffffffffffffffffffffffffffffffffffffffffff8381831617835250505050905090565b60005481565b80600080828254610158919061034b565b9250508190555050565b600081519050919050565b600082825260208201905092915050565b60005b8381101561019c578082015181840152602081019050610181565b838111156101ab576000848401525b50505050565b6000601f19601f8301169050919050565b60006101cd82610162565b6101d7818561016d565b93506101e781856020860161017e565b6101f0816101b1565b840191505092915050565b6000602082019050818103600083015261021581846101c2565b905092915050565b6000819050919050565b6102308161021d565b82525050565b600060208201905061024b6000830184610227565b92915050565b600080fd5b61025f8161021d565b811461026a57600080fd5b50565b60008135905061027c81610256565b92915050565b60006020828403121561029857610297610251565b5b60006102a68482850161026d565b91505092915050565b6000819050919050565b600060ff82169050919050565b6000819050919050565b60006102eb6102e66102e1846102af565b6102c6565b6102b9565b9050919050565b6102fb816102d0565b82525050565b600060208201905061031660008301846102f2565b92915050565b7f4e487b7100000000000000000000000000000000000000000000000000000000600052601160045260246000fd5b60006103568261021d565b91506103618361021d565b9250827fffffffffffffffffffffffffffffffffffffffffffffffffffffffffffffffff038211156103965761039561031c565b5b82820190509291505056fea2646970667358221220ac3068a28996a2d2e269b3c7eeecfd15f4d851f40246c5dc316611245714065764736f6c634300080d0033",
  "immutableReferences": {},
  "source": "//  SPDX-License-Identifier: MIT\r\npragma solidity ^0.8.7;\r\n\r\ncontract TestContract {\r\n    uint public i;\r\n\r\n    function callMe(uint j) public payable {\r\n        i += j;\r\n    }\r\n\r\n    function getData() public pure returns (bytes memory) {\r\n        return abi.encodeWithSignature(\"callMe(uint256)\", 123);\r\n    }\r\n}",
  "sourcePath": "C:\\Users\\sakha\\Projects\\Multisign\\contracts\\TestContract.sol",
  "compiler": {
    "name": "solc",
    "version": "0.8.13+commit.abaa5c0e.Emscripten.clang"
  },
  "schemaVersion": "3.4.9",
  "updatedAt": "2022-10-11T08:27:30.336Z",
  "devdoc": {
    "kind": "dev",
    "methods": {},
    "version": 1
  },
  "userdoc": {
    "kind": "user",
    "methods": {},
    "version": 1
  }
}